{
  "_format": "hh-sol-artifact-1",
  "contractName": "EmojiFaces",
  "sourceName": "contracts/EmojiFaces.sol",
  "abi": [
    {
      "inputs": [],
      "stateMutability": "nonpayable",
      "type": "constructor"
    },
    {
      "anonymous": false,
      "inputs": [
        {
          "indexed": true,
          "internalType": "address",
          "name": "owner",
          "type": "address"
        },
        {
          "indexed": true,
          "internalType": "address",
          "name": "approved",
          "type": "address"
        },
        {
          "indexed": true,
          "internalType": "uint256",
          "name": "tokenId",
          "type": "uint256"
        }
      ],
      "name": "Approval",
      "type": "event"
    },
    {
      "anonymous": false,
      "inputs": [
        {
          "indexed": true,
          "internalType": "address",
          "name": "owner",
          "type": "address"
        },
        {
          "indexed": true,
          "internalType": "address",
          "name": "operator",
          "type": "address"
        },
        {
          "indexed": false,
          "internalType": "bool",
          "name": "approved",
          "type": "bool"
        }
      ],
      "name": "ApprovalForAll",
      "type": "event"
    },
    {
      "anonymous": false,
      "inputs": [
        {
          "indexed": false,
          "internalType": "uint256",
          "name": "tokenId",
          "type": "uint256"
        },
        {
          "indexed": false,
          "internalType": "address",
          "name": "owner",
          "type": "address"
        }
      ],
      "name": "EmojiMinted",
      "type": "event"
    },
    {
      "anonymous": false,
      "inputs": [
        {
          "indexed": true,
          "internalType": "address",
          "name": "previousOwner",
          "type": "address"
        },
        {
          "indexed": true,
          "internalType": "address",
          "name": "newOwner",
          "type": "address"
        }
      ],
      "name": "OwnershipTransferred",
      "type": "event"
    },
    {
      "anonymous": false,
      "inputs": [
        {
          "indexed": true,
          "internalType": "address",
          "name": "from",
          "type": "address"
        },
        {
          "indexed": true,
          "internalType": "address",
          "name": "to",
          "type": "address"
        },
        {
          "indexed": true,
          "internalType": "uint256",
          "name": "tokenId",
          "type": "uint256"
        }
      ],
      "name": "Transfer",
      "type": "event"
    },
    {
      "inputs": [],
      "name": "MAX_TOKENS",
      "outputs": [
        {
          "internalType": "uint256",
          "name": "",
          "type": "uint256"
        }
      ],
      "stateMutability": "view",
      "type": "function"
    },
    {
      "inputs": [
        {
          "internalType": "address[]",
          "name": "addresses",
          "type": "address[]"
        }
      ],
      "name": "addToPresaleList",
      "outputs": [],
      "stateMutability": "nonpayable",
      "type": "function"
    },
    {
      "inputs": [
        {
          "internalType": "address",
          "name": "to",
          "type": "address"
        },
        {
          "internalType": "uint256",
          "name": "tokenId",
          "type": "uint256"
        }
      ],
      "name": "approve",
      "outputs": [],
      "stateMutability": "nonpayable",
      "type": "function"
    },
    {
      "inputs": [
        {
          "internalType": "address",
          "name": "owner",
          "type": "address"
        }
      ],
      "name": "balanceOf",
      "outputs": [
        {
          "internalType": "uint256",
          "name": "",
          "type": "uint256"
        }
      ],
      "stateMutability": "view",
      "type": "function"
    },
    {
      "inputs": [],
      "name": "baseURI",
      "outputs": [
        {
          "internalType": "string",
          "name": "",
          "type": "string"
        }
      ],
      "stateMutability": "view",
      "type": "function"
    },
    {
      "inputs": [],
      "name": "devReserve",
      "outputs": [
        {
          "internalType": "uint256",
          "name": "",
          "type": "uint256"
        }
      ],
      "stateMutability": "view",
      "type": "function"
    },
    {
      "inputs": [
        {
          "internalType": "uint256",
          "name": "tokenId",
          "type": "uint256"
        }
      ],
      "name": "getApproved",
      "outputs": [
        {
          "internalType": "address",
          "name": "",
          "type": "address"
        }
      ],
      "stateMutability": "view",
      "type": "function"
    },
    {
      "inputs": [
        {
          "internalType": "address",
          "name": "owner",
          "type": "address"
        },
        {
          "internalType": "address",
          "name": "operator",
          "type": "address"
        }
      ],
      "name": "isApprovedForAll",
      "outputs": [
        {
          "internalType": "bool",
          "name": "",
          "type": "bool"
        }
      ],
      "stateMutability": "view",
      "type": "function"
    },
    {
      "inputs": [],
      "name": "isRevealed",
      "outputs": [
        {
          "internalType": "bool",
          "name": "",
          "type": "bool"
        }
      ],
      "stateMutability": "view",
      "type": "function"
    },
    {
      "inputs": [],
      "name": "maxTokenPurchase",
      "outputs": [
        {
          "internalType": "uint256",
          "name": "",
          "type": "uint256"
        }
      ],
      "stateMutability": "view",
      "type": "function"
    },
    {
      "inputs": [
        {
          "internalType": "uint256",
          "name": "numberOfTokens",
          "type": "uint256"
        }
      ],
      "name": "mintEmoji",
      "outputs": [],
      "stateMutability": "payable",
      "type": "function"
    },
    {
      "inputs": [],
      "name": "name",
      "outputs": [
        {
          "internalType": "string",
          "name": "",
          "type": "string"
        }
      ],
      "stateMutability": "view",
      "type": "function"
    },
    {
      "inputs": [
        {
          "internalType": "address",
          "name": "addr",
          "type": "address"
        }
      ],
      "name": "onPreSaleList",
      "outputs": [
        {
          "internalType": "bool",
          "name": "",
          "type": "bool"
        }
      ],
      "stateMutability": "view",
      "type": "function"
    },
    {
      "inputs": [],
      "name": "owner",
      "outputs": [
        {
          "internalType": "address",
          "name": "",
          "type": "address"
        }
      ],
      "stateMutability": "view",
      "type": "function"
    },
    {
      "inputs": [
        {
          "internalType": "uint256",
          "name": "tokenId",
          "type": "uint256"
        }
      ],
      "name": "ownerOf",
      "outputs": [
        {
          "internalType": "address",
          "name": "",
          "type": "address"
        }
      ],
      "stateMutability": "view",
      "type": "function"
    },
    {
      "inputs": [
        {
          "internalType": "uint256",
          "name": "numberOfTokens",
          "type": "uint256"
        }
      ],
      "name": "presaleEmoji",
      "outputs": [],
      "stateMutability": "payable",
      "type": "function"
    },
    {
      "inputs": [],
      "name": "presaleIsActive",
      "outputs": [
        {
          "internalType": "bool",
          "name": "",
          "type": "bool"
        }
      ],
      "stateMutability": "view",
      "type": "function"
    },
    {
      "inputs": [],
      "name": "presaleMaxMint",
      "outputs": [
        {
          "internalType": "uint256",
          "name": "",
          "type": "uint256"
        }
      ],
      "stateMutability": "view",
      "type": "function"
    },
    {
      "inputs": [
        {
          "internalType": "address[]",
          "name": "addresses",
          "type": "address[]"
        }
      ],
      "name": "removeFromPresaleList",
      "outputs": [],
      "stateMutability": "nonpayable",
      "type": "function"
    },
    {
      "inputs": [],
      "name": "renounceOwnership",
      "outputs": [],
      "stateMutability": "nonpayable",
      "type": "function"
    },
    {
      "inputs": [
        {
          "internalType": "address",
          "name": "_to",
          "type": "address"
        },
        {
          "internalType": "uint256",
          "name": "_reserveAmount",
          "type": "uint256"
        }
      ],
      "name": "reserveTokens",
      "outputs": [],
      "stateMutability": "nonpayable",
      "type": "function"
    },
    {
      "inputs": [],
      "name": "reveal",
      "outputs": [],
      "stateMutability": "nonpayable",
      "type": "function"
    },
    {
      "inputs": [
        {
          "internalType": "address",
          "name": "from",
          "type": "address"
        },
        {
          "internalType": "address",
          "name": "to",
          "type": "address"
        },
        {
          "internalType": "uint256",
          "name": "tokenId",
          "type": "uint256"
        }
      ],
      "name": "safeTransferFrom",
      "outputs": [],
      "stateMutability": "nonpayable",
      "type": "function"
    },
    {
      "inputs": [
        {
          "internalType": "address",
          "name": "from",
          "type": "address"
        },
        {
          "internalType": "address",
          "name": "to",
          "type": "address"
        },
        {
          "internalType": "uint256",
          "name": "tokenId",
          "type": "uint256"
        },
        {
          "internalType": "bytes",
          "name": "_data",
          "type": "bytes"
        }
      ],
      "name": "safeTransferFrom",
      "outputs": [],
      "stateMutability": "nonpayable",
      "type": "function"
    },
    {
      "inputs": [],
      "name": "saleIsActive",
      "outputs": [
        {
          "internalType": "bool",
          "name": "",
          "type": "bool"
        }
      ],
      "stateMutability": "view",
      "type": "function"
    },
    {
      "inputs": [
        {
          "internalType": "address",
          "name": "operator",
          "type": "address"
        },
        {
          "internalType": "bool",
          "name": "approved",
          "type": "bool"
        }
      ],
      "name": "setApprovalForAll",
      "outputs": [],
      "stateMutability": "nonpayable",
      "type": "function"
    },
    {
      "inputs": [
        {
          "internalType": "string",
          "name": "_newBaseURI",
          "type": "string"
        }
      ],
      "name": "setBaseURI",
      "outputs": [],
      "stateMutability": "nonpayable",
      "type": "function"
    },
    {
      "inputs": [
        {
          "internalType": "uint256",
          "name": "maxMint",
          "type": "uint256"
        }
      ],
      "name": "setPresaleMaxMint",
      "outputs": [],
      "stateMutability": "nonpayable",
      "type": "function"
    },
    {
      "inputs": [
        {
          "internalType": "bytes4",
          "name": "interfaceId",
          "type": "bytes4"
        }
      ],
      "name": "supportsInterface",
      "outputs": [
        {
          "internalType": "bool",
          "name": "",
          "type": "bool"
        }
      ],
      "stateMutability": "view",
      "type": "function"
    },
    {
      "inputs": [],
      "name": "symbol",
      "outputs": [
        {
          "internalType": "string",
          "name": "",
          "type": "string"
        }
      ],
      "stateMutability": "view",
      "type": "function"
    },
    {
      "inputs": [],
      "name": "togglePresaleState",
      "outputs": [],
      "stateMutability": "nonpayable",
      "type": "function"
    },
    {
      "inputs": [],
      "name": "toggleSaleState",
      "outputs": [],
      "stateMutability": "nonpayable",
      "type": "function"
    },
    {
      "inputs": [
        {
          "internalType": "uint256",
          "name": "index",
          "type": "uint256"
        }
      ],
      "name": "tokenByIndex",
      "outputs": [
        {
          "internalType": "uint256",
          "name": "",
          "type": "uint256"
        }
      ],
      "stateMutability": "view",
      "type": "function"
    },
    {
      "inputs": [
        {
          "internalType": "address",
          "name": "owner",
          "type": "address"
        },
        {
          "internalType": "uint256",
          "name": "index",
          "type": "uint256"
        }
      ],
      "name": "tokenOfOwnerByIndex",
      "outputs": [
        {
          "internalType": "uint256",
          "name": "",
          "type": "uint256"
        }
      ],
      "stateMutability": "view",
      "type": "function"
    },
    {
      "inputs": [],
      "name": "tokenPrice",
      "outputs": [
        {
          "internalType": "uint256",
          "name": "",
          "type": "uint256"
        }
      ],
      "stateMutability": "view",
      "type": "function"
    },
    {
      "inputs": [
        {
          "internalType": "uint256",
          "name": "tokenId",
          "type": "uint256"
        }
      ],
      "name": "tokenURI",
      "outputs": [
        {
          "internalType": "string",
          "name": "",
          "type": "string"
        }
      ],
      "stateMutability": "view",
      "type": "function"
    },
    {
      "inputs": [
        {
          "internalType": "address",
          "name": "_owner",
          "type": "address"
        }
      ],
      "name": "tokensOfOwner",
      "outputs": [
        {
          "internalType": "uint256[]",
          "name": "",
          "type": "uint256[]"
        }
      ],
      "stateMutability": "view",
      "type": "function"
    },
    {
      "inputs": [],
      "name": "totalSupply",
      "outputs": [
        {
          "internalType": "uint256",
          "name": "",
          "type": "uint256"
        }
      ],
      "stateMutability": "view",
      "type": "function"
    },
    {
      "inputs": [
        {
          "internalType": "address",
          "name": "from",
          "type": "address"
        },
        {
          "internalType": "address",
          "name": "to",
          "type": "address"
        },
        {
          "internalType": "uint256",
          "name": "tokenId",
          "type": "uint256"
        }
      ],
      "name": "transferFrom",
      "outputs": [],
      "stateMutability": "nonpayable",
      "type": "function"
    },
    {
      "inputs": [
        {
          "internalType": "address",
          "name": "newOwner",
          "type": "address"
        }
      ],
      "name": "transferOwnership",
      "outputs": [],
      "stateMutability": "nonpayable",
      "type": "function"
    },
    {
      "inputs": [],
      "name": "withdraw",
      "outputs": [],
      "stateMutability": "payable",
      "type": "function"
    }
  ],
  "bytecode": "0x608060405260405180602001604052806000815250600b90805190602001906200002b92919062000229565b506000600c60006101000a81548160ff0219169083151502179055506000600c60016101000a81548160ff0219169083151502179055506000600c60026101000a81548160ff0219169083151502179055506002600f5560406010553480156200009457600080fd5b506040518060400160405280600d81526020017f456d6f6a6946616365734e6577000000000000000000000000000000000000008152506040518060400160405280600381526020017f454653000000000000000000000000000000000000000000000000000000000081525081600090805190602001906200011992919062000229565b5080600190805190602001906200013292919062000229565b50505062000155620001496200015b60201b60201c565b6200016360201b60201c565b6200033e565b600033905090565b6000600660009054906101000a900473ffffffffffffffffffffffffffffffffffffffff16905081600660006101000a81548173ffffffffffffffffffffffffffffffffffffffff021916908373ffffffffffffffffffffffffffffffffffffffff1602179055508173ffffffffffffffffffffffffffffffffffffffff168173ffffffffffffffffffffffffffffffffffffffff167f8be0079c531659141344cd1fd0a4f28419497f9722a3daafe3b4186f6b6457e060405160405180910390a35050565b8280546200023790620002d9565b90600052602060002090601f0160209004810192826200025b5760008555620002a7565b82601f106200027657805160ff1916838001178555620002a7565b82800160010185558215620002a7579182015b82811115620002a657825182559160200191906001019062000289565b5b509050620002b69190620002ba565b5090565b5b80821115620002d5576000816000905550600101620002bb565b5090565b60006002820490506001821680620002f257607f821691505b602082108114156200030957620003086200030f565b5b50919050565b7f4e487b7100000000000000000000000000000000000000000000000000000000600052602260045260246000fd5b61540c806200034e6000396000f3fe6080604052600436106102465760003560e01c806378cf19e911610139578063b88d4fde116100b6578063e985e9c51161007a578063e985e9c51461083f578063eb8d24441461087c578063f285e69e146108a7578063f2fde38b146108be578063f47c84c5146108e7578063fcd2a4271461091257610246565b8063b88d4fde1461077d578063bf6bd9ea146107a6578063c87b56dd146107c2578063daaeec86146107ff578063df4305d21461081657610246565b8063946ef42a116100fd578063946ef42a146106be57806395d89b41146106e9578063a22cb46514610714578063a475b5dd1461073d578063b179e0601461075457610246565b806378cf19e9146105e65780637ff9b5961461060f5780638462151c1461063a5780638caa6bcd146106775780638da5cb5b1461069357610246565b80633ccfd60b116101c75780636352211e1161018b5780636352211e146105015780636c0360eb1461053e57806370a0823114610569578063715018a6146105a65780637204a3c9146105bd57610246565b80633ccfd60b1461043d57806342842e0e146104475780634f6ccce71461047057806354214f69146104ad57806355f804b3146104d857610246565b806311576b791161020e57806311576b791461034457806318160ddd1461038157806323b872dd146103ac5780632f745c59146103d557806330f72cd41461041257610246565b806301ffc9a71461024b57806306fdde0314610288578063081812fc146102b3578063095ea7b3146102f057806309aa3dcf14610319575b600080fd5b34801561025757600080fd5b50610272600480360381019061026d9190613bfd565b61093d565b60405161027f9190614318565b60405180910390f35b34801561029457600080fd5b5061029d61094f565b6040516102aa9190614333565b60405180910390f35b3480156102bf57600080fd5b506102da60048036038101906102d59190613c90565b6109e1565b6040516102e7919061428f565b60405180910390f35b3480156102fc57600080fd5b5061031760048036038101906103129190613b7c565b610a66565b005b34801561032557600080fd5b5061032e610b7e565b60405161033b91906146f5565b60405180910390f35b34801561035057600080fd5b5061036b60048036038101906103669190613a11565b610b83565b6040516103789190614318565b60405180910390f35b34801561038d57600080fd5b50610396610bd9565b6040516103a391906146f5565b60405180910390f35b3480156103b857600080fd5b506103d360048036038101906103ce9190613a76565b610be6565b005b3480156103e157600080fd5b506103fc60048036038101906103f79190613b7c565b610c46565b60405161040991906146f5565b60405180910390f35b34801561041e57600080fd5b50610427610ceb565b6040516104349190614318565b60405180910390f35b610445610cfe565b005b34801561045357600080fd5b5061046e60048036038101906104699190613a76565b610dfa565b005b34801561047c57600080fd5b5061049760048036038101906104929190613c90565b610e1a565b6040516104a491906146f5565b60405180910390f35b3480156104b957600080fd5b506104c2610eb1565b6040516104cf9190614318565b60405180910390f35b3480156104e457600080fd5b506104ff60048036038101906104fa9190613c4f565b610ec4565b005b34801561050d57600080fd5b5061052860048036038101906105239190613c90565b610f5a565b604051610535919061428f565b60405180910390f35b34801561054a57600080fd5b5061055361100c565b6040516105609190614333565b60405180910390f35b34801561057557600080fd5b50610590600480360381019061058b9190613a11565b61109a565b60405161059d91906146f5565b60405180910390f35b3480156105b257600080fd5b506105bb611152565b005b3480156105c957600080fd5b506105e460048036038101906105df9190613bb8565b6111da565b005b3480156105f257600080fd5b5061060d60048036038101906106089190613b7c565b6113de565b005b34801561061b57600080fd5b50610624611500565b60405161063191906146f5565b60405180910390f35b34801561064657600080fd5b50610661600480360381019061065c9190613a11565b61150b565b60405161066e91906142f6565b60405180910390f35b610691600480360381019061068c9190613c90565b611687565b005b34801561069f57600080fd5b506106a86119f1565b6040516106b5919061428f565b60405180910390f35b3480156106ca57600080fd5b506106d3611a1b565b6040516106e091906146f5565b60405180910390f35b3480156106f557600080fd5b506106fe611a21565b60405161070b9190614333565b60405180910390f35b34801561072057600080fd5b5061073b60048036038101906107369190613b40565b611ab3565b005b34801561074957600080fd5b50610752611c34565b005b34801561076057600080fd5b5061077b60048036038101906107769190613bb8565b611ccd565b005b34801561078957600080fd5b506107a4600480360381019061079f9190613ac5565b611ed1565b005b6107c060048036038101906107bb9190613c90565b611f33565b005b3480156107ce57600080fd5b506107e960048036038101906107e49190613c90565b612123565b6040516107f69190614333565b60405180910390f35b34801561080b57600080fd5b50610814612208565b005b34801561082257600080fd5b5061083d60048036038101906108389190613c90565b6122b0565b005b34801561084b57600080fd5b5061086660048036038101906108619190613a3a565b612336565b6040516108739190614318565b60405180910390f35b34801561088857600080fd5b506108916123ca565b60405161089e9190614318565b60405180910390f35b3480156108b357600080fd5b506108bc6123dd565b005b3480156108ca57600080fd5b506108e560048036038101906108e09190613a11565b612485565b005b3480156108f357600080fd5b506108fc61257d565b60405161090991906146f5565b60405180910390f35b34801561091e57600080fd5b50610927612583565b60405161093491906146f5565b60405180910390f35b600061094882612589565b9050919050565b60606000805461095e90614a12565b80601f016020809104026020016040519081016040528092919081815260200182805461098a90614a12565b80156109d75780601f106109ac576101008083540402835291602001916109d7565b820191906000526020600020905b8154815290600101906020018083116109ba57829003601f168201915b5050505050905090565b60006109ec82612603565b610a2b576040517f08c379a0000000000000000000000000000000000000000000000000000000008152600401610a2290614575565b60405180910390fd5b6004600083815260200190815260200160002060009054906101000a900473ffffffffffffffffffffffffffffffffffffffff169050919050565b6000610a7182610f5a565b90508073ffffffffffffffffffffffffffffffffffffffff168373ffffffffffffffffffffffffffffffffffffffff161415610ae2576040517f08c379a0000000000000000000000000000000000000000000000000000000008152600401610ad990614635565b60405180910390fd5b8073ffffffffffffffffffffffffffffffffffffffff16610b0161266f565b73ffffffffffffffffffffffffffffffffffffffff161480610b305750610b2f81610b2a61266f565b612336565b5b610b6f576040517f08c379a0000000000000000000000000000000000000000000000000000000008152600401610b66906144d5565b60405180910390fd5b610b798383612677565b505050565b600381565b6000600d60008373ffffffffffffffffffffffffffffffffffffffff1673ffffffffffffffffffffffffffffffffffffffff16815260200190815260200160002060009054906101000a900460ff169050919050565b6000600980549050905090565b610bf7610bf161266f565b82612730565b610c36576040517f08c379a0000000000000000000000000000000000000000000000000000000008152600401610c2d90614655565b60405180910390fd5b610c4183838361280e565b505050565b6000610c518361109a565b8210610c92576040517f08c379a0000000000000000000000000000000000000000000000000000000008152600401610c8990614375565b60405180910390fd5b600760008473ffffffffffffffffffffffffffffffffffffffff1673ffffffffffffffffffffffffffffffffffffffff168152602001908152602001600020600083815260200190815260200160002054905092915050565b600c60019054906101000a900460ff1681565b610d0661266f565b73ffffffffffffffffffffffffffffffffffffffff16610d246119f1565b73ffffffffffffffffffffffffffffffffffffffff1614610d7a576040517f08c379a0000000000000000000000000000000000000000000000000000000008152600401610d7190614595565b60405180910390fd5b6000610d846119f1565b73ffffffffffffffffffffffffffffffffffffffff1647604051610da79061427a565b60006040518083038185875af1925050503d8060008114610de4576040519150601f19603f3d011682016040523d82523d6000602084013e610de9565b606091505b5050905080610df757600080fd5b50565b610e1583838360405180602001604052806000815250611ed1565b505050565b6000610e24610bd9565b8210610e65576040517f08c379a0000000000000000000000000000000000000000000000000000000008152600401610e5c90614675565b60405180910390fd5b60098281548110610e9f577f4e487b7100000000000000000000000000000000000000000000000000000000600052603260045260246000fd5b90600052602060002001549050919050565b600c60029054906101000a900460ff1681565b610ecc61266f565b73ffffffffffffffffffffffffffffffffffffffff16610eea6119f1565b73ffffffffffffffffffffffffffffffffffffffff1614610f40576040517f08c379a0000000000000000000000000000000000000000000000000000000008152600401610f3790614595565b60405180910390fd5b80600b9080519060200190610f569291906137eb565b5050565b6000806002600084815260200190815260200160002060009054906101000a900473ffffffffffffffffffffffffffffffffffffffff169050600073ffffffffffffffffffffffffffffffffffffffff168173ffffffffffffffffffffffffffffffffffffffff161415611003576040517f08c379a0000000000000000000000000000000000000000000000000000000008152600401610ffa90614515565b60405180910390fd5b80915050919050565b600b805461101990614a12565b80601f016020809104026020016040519081016040528092919081815260200182805461104590614a12565b80156110925780601f1061106757610100808354040283529160200191611092565b820191906000526020600020905b81548152906001019060200180831161107557829003601f168201915b505050505081565b60008073ffffffffffffffffffffffffffffffffffffffff168273ffffffffffffffffffffffffffffffffffffffff16141561110b576040517f08c379a0000000000000000000000000000000000000000000000000000000008152600401611102906144f5565b60405180910390fd5b600360008373ffffffffffffffffffffffffffffffffffffffff1673ffffffffffffffffffffffffffffffffffffffff168152602001908152602001600020549050919050565b61115a61266f565b73ffffffffffffffffffffffffffffffffffffffff166111786119f1565b73ffffffffffffffffffffffffffffffffffffffff16146111ce576040517f08c379a00000000000000000000000000000000000000000000000000000000081526004016111c590614595565b60405180910390fd5b6111d86000612a6a565b565b6111e261266f565b73ffffffffffffffffffffffffffffffffffffffff166112006119f1565b73ffffffffffffffffffffffffffffffffffffffff1614611256576040517f08c379a000000000000000000000000000000000000000000000000000000000815260040161124d90614595565b60405180910390fd5b60005b828290508110156113d957600073ffffffffffffffffffffffffffffffffffffffff168383838181106112b5577f4e487b7100000000000000000000000000000000000000000000000000000000600052603260045260246000fd5b90506020020160208101906112ca9190613a11565b73ffffffffffffffffffffffffffffffffffffffff161415611321576040517f08c379a0000000000000000000000000000000000000000000000000000000008152600401611318906145b5565b60405180910390fd5b6001600d6000858585818110611360577f4e487b7100000000000000000000000000000000000000000000000000000000600052603260045260246000fd5b90506020020160208101906113759190613a11565b73ffffffffffffffffffffffffffffffffffffffff1673ffffffffffffffffffffffffffffffffffffffff16815260200190815260200160002060006101000a81548160ff02191690831515021790555080806113d190614a75565b915050611259565b505050565b6113e661266f565b73ffffffffffffffffffffffffffffffffffffffff166114046119f1565b73ffffffffffffffffffffffffffffffffffffffff161461145a576040517f08c379a000000000000000000000000000000000000000000000000000000000815260040161145190614595565b60405180910390fd5b60008111801561146c57506010548111155b6114ab576040517f08c379a00000000000000000000000000000000000000000000000000000000081526004016114a290614435565b60405180910390fd5b60005b818110156114e05760006114c0610bd9565b90506114cc8482612b30565b5080806114d890614a75565b9150506114ae565b506114f681601054612b4e90919063ffffffff16565b6010819055505050565b6606c00a3912c00081565b606060006115188361109a565b9050600081141561159b57600067ffffffffffffffff811115611564577f4e487b7100000000000000000000000000000000000000000000000000000000600052604160045260246000fd5b6040519080825280602002602001820160405280156115925781602001602082028036833780820191505090505b50915050611682565b60008167ffffffffffffffff8111156115dd577f4e487b7100000000000000000000000000000000000000000000000000000000600052604160045260246000fd5b60405190808252806020026020018201604052801561160b5781602001602082028036833780820191505090505b50905060005b8281101561167b576116238582610c46565b82828151811061165c577f4e487b7100000000000000000000000000000000000000000000000000000000600052603260045260246000fd5b602002602001018181525050808061167390614a75565b915050611611565b8193505050505b919050565b600c60019054906101000a900460ff166116d6576040517f08c379a00000000000000000000000000000000000000000000000000000000081526004016116cd90614695565b60405180910390fd5b600d60003373ffffffffffffffffffffffffffffffffffffffff1673ffffffffffffffffffffffffffffffffffffffff16815260200190815260200160002060009054906101000a900460ff16611762576040517f08c379a0000000000000000000000000000000000000000000000000000000008152600401611759906143f5565b60405180910390fd5b61271061177f82611771610bd9565b612b6490919063ffffffff16565b11156117c0576040517f08c379a00000000000000000000000000000000000000000000000000000000081526004016117b7906145d5565b60405180910390fd5b6000811180156117d25750600f548111155b611811576040517f08c379a0000000000000000000000000000000000000000000000000000000008152600401611808906146d5565b60405180910390fd5b600f5461186682600e60003373ffffffffffffffffffffffffffffffffffffffff1673ffffffffffffffffffffffffffffffffffffffff16815260200190815260200160002054612b6490919063ffffffff16565b11156118a7576040517f08c379a000000000000000000000000000000000000000000000000000000000815260040161189e906146b5565b60405180910390fd5b6118c1816606c00a3912c000612b7a90919063ffffffff16565b341015611903576040517f08c379a00000000000000000000000000000000000000000000000000000000081526004016118fa90614495565b60405180910390fd5b60005b818110156119ed57600061192b600161191d610bd9565b612b6490919063ffffffff16565b9050612710611938610bd9565b10156119d9576001600e60003373ffffffffffffffffffffffffffffffffffffffff1673ffffffffffffffffffffffffffffffffffffffff168152602001908152602001600020600082825461198e9190614847565b9250508190555061199f3382612b30565b7f7853d1461ac86ac48ba5b6be5e468cb642eeba574b7b287ae5e6e5174dd2b4f181336040516119d0929190614710565b60405180910390a15b5080806119e590614a75565b915050611906565b5050565b6000600660009054906101000a900473ffffffffffffffffffffffffffffffffffffffff16905090565b600f5481565b606060018054611a3090614a12565b80601f0160208091040260200160405190810160405280929190818152602001828054611a5c90614a12565b8015611aa95780601f10611a7e57610100808354040283529160200191611aa9565b820191906000526020600020905b815481529060010190602001808311611a8c57829003601f168201915b5050505050905090565b611abb61266f565b73ffffffffffffffffffffffffffffffffffffffff168273ffffffffffffffffffffffffffffffffffffffff161415611b29576040517f08c379a0000000000000000000000000000000000000000000000000000000008152600401611b2090614475565b60405180910390fd5b8060056000611b3661266f565b73ffffffffffffffffffffffffffffffffffffffff1673ffffffffffffffffffffffffffffffffffffffff16815260200190815260200160002060008473ffffffffffffffffffffffffffffffffffffffff1673ffffffffffffffffffffffffffffffffffffffff16815260200190815260200160002060006101000a81548160ff0219169083151502179055508173ffffffffffffffffffffffffffffffffffffffff16611be361266f565b73ffffffffffffffffffffffffffffffffffffffff167f17307eab39ab6107e8899845ad3d59bd9653f200f220920489ca2b5937696c3183604051611c289190614318565b60405180910390a35050565b611c3c61266f565b73ffffffffffffffffffffffffffffffffffffffff16611c5a6119f1565b73ffffffffffffffffffffffffffffffffffffffff1614611cb0576040517f08c379a0000000000000000000000000000000000000000000000000000000008152600401611ca790614595565b60405180910390fd5b6001600c60026101000a81548160ff021916908315150217905550565b611cd561266f565b73ffffffffffffffffffffffffffffffffffffffff16611cf36119f1565b73ffffffffffffffffffffffffffffffffffffffff1614611d49576040517f08c379a0000000000000000000000000000000000000000000000000000000008152600401611d4090614595565b60405180910390fd5b60005b82829050811015611ecc57600073ffffffffffffffffffffffffffffffffffffffff16838383818110611da8577f4e487b7100000000000000000000000000000000000000000000000000000000600052603260045260246000fd5b9050602002016020810190611dbd9190613a11565b73ffffffffffffffffffffffffffffffffffffffff161415611e14576040517f08c379a0000000000000000000000000000000000000000000000000000000008152600401611e0b906145b5565b60405180910390fd5b6000600d6000858585818110611e53577f4e487b7100000000000000000000000000000000000000000000000000000000600052603260045260246000fd5b9050602002016020810190611e689190613a11565b73ffffffffffffffffffffffffffffffffffffffff1673ffffffffffffffffffffffffffffffffffffffff16815260200190815260200160002060006101000a81548160ff0219169083151502179055508080611ec490614a75565b915050611d4c565b505050565b611ee2611edc61266f565b83612730565b611f21576040517f08c379a0000000000000000000000000000000000000000000000000000000008152600401611f1890614655565b60405180910390fd5b611f2d84848484612b90565b50505050565b600c60009054906101000a900460ff16611f82576040517f08c379a0000000000000000000000000000000000000000000000000000000008152600401611f7990614415565b60405180910390fd5b600081118015611f93575060038111155b611fd2576040517f08c379a0000000000000000000000000000000000000000000000000000000008152600401611fc990614355565b60405180910390fd5b612710611fef82611fe1610bd9565b612b6490919063ffffffff16565b1115612030576040517f08c379a000000000000000000000000000000000000000000000000000000000815260040161202790614535565b60405180910390fd5b61204a816606c00a3912c000612b7a90919063ffffffff16565b34101561208c576040517f08c379a000000000000000000000000000000000000000000000000000000000815260040161208390614495565b60405180910390fd5b60005b8181101561211f5760006120b460016120a6610bd9565b612b6490919063ffffffff16565b90506127106120c1610bd9565b101561210b576120d13382612b30565b7f7853d1461ac86ac48ba5b6be5e468cb642eeba574b7b287ae5e6e5174dd2b4f18133604051612102929190614710565b60405180910390a15b50808061211790614a75565b91505061208f565b5050565b606061212e82612603565b61216d576040517f08c379a000000000000000000000000000000000000000000000000000000000815260040161216490614615565b60405180910390fd5b6000612177612bec565b905060001515600c60029054906101000a900460ff16151514156121b65760405180608001604052806041815260200161539660419139915050612203565b60008151116121d457604051806020016040528060008152506121ff565b806121de84612c7e565b6040516020016121ef92919061424b565b6040516020818303038152906040525b9150505b919050565b61221061266f565b73ffffffffffffffffffffffffffffffffffffffff1661222e6119f1565b73ffffffffffffffffffffffffffffffffffffffff1614612284576040517f08c379a000000000000000000000000000000000000000000000000000000000815260040161227b90614595565b60405180910390fd5b600c60009054906101000a900460ff1615600c60006101000a81548160ff021916908315150217905550565b6122b861266f565b73ffffffffffffffffffffffffffffffffffffffff166122d66119f1565b73ffffffffffffffffffffffffffffffffffffffff161461232c576040517f08c379a000000000000000000000000000000000000000000000000000000000815260040161232390614595565b60405180910390fd5b80600f8190555050565b6000600560008473ffffffffffffffffffffffffffffffffffffffff1673ffffffffffffffffffffffffffffffffffffffff16815260200190815260200160002060008373ffffffffffffffffffffffffffffffffffffffff1673ffffffffffffffffffffffffffffffffffffffff16815260200190815260200160002060009054906101000a900460ff16905092915050565b600c60009054906101000a900460ff1681565b6123e561266f565b73ffffffffffffffffffffffffffffffffffffffff166124036119f1565b73ffffffffffffffffffffffffffffffffffffffff1614612459576040517f08c379a000000000000000000000000000000000000000000000000000000000815260040161245090614595565b60405180910390fd5b600c60019054906101000a900460ff1615600c60016101000a81548160ff021916908315150217905550565b61248d61266f565b73ffffffffffffffffffffffffffffffffffffffff166124ab6119f1565b73ffffffffffffffffffffffffffffffffffffffff1614612501576040517f08c379a00000000000000000000000000000000000000000000000000000000081526004016124f890614595565b60405180910390fd5b600073ffffffffffffffffffffffffffffffffffffffff168173ffffffffffffffffffffffffffffffffffffffff161415612571576040517f08c379a0000000000000000000000000000000000000000000000000000000008152600401612568906143b5565b60405180910390fd5b61257a81612a6a565b50565b61271081565b60105481565b60007f780e9d63000000000000000000000000000000000000000000000000000000007bffffffffffffffffffffffffffffffffffffffffffffffffffffffff1916827bffffffffffffffffffffffffffffffffffffffffffffffffffffffff191614806125fc57506125fb82612e2b565b5b9050919050565b60008073ffffffffffffffffffffffffffffffffffffffff166002600084815260200190815260200160002060009054906101000a900473ffffffffffffffffffffffffffffffffffffffff1673ffffffffffffffffffffffffffffffffffffffff1614159050919050565b600033905090565b816004600083815260200190815260200160002060006101000a81548173ffffffffffffffffffffffffffffffffffffffff021916908373ffffffffffffffffffffffffffffffffffffffff160217905550808273ffffffffffffffffffffffffffffffffffffffff166126ea83610f5a565b73ffffffffffffffffffffffffffffffffffffffff167f8c5be1e5ebec7d5bd14f71427d1e84f3dd0314c0f7b2291e5b200ac8c7c3b92560405160405180910390a45050565b600061273b82612603565b61277a576040517f08c379a0000000000000000000000000000000000000000000000000000000008152600401612771906144b5565b60405180910390fd5b600061278583610f5a565b90508073ffffffffffffffffffffffffffffffffffffffff168473ffffffffffffffffffffffffffffffffffffffff1614806127f457508373ffffffffffffffffffffffffffffffffffffffff166127dc846109e1565b73ffffffffffffffffffffffffffffffffffffffff16145b8061280557506128048185612336565b5b91505092915050565b8273ffffffffffffffffffffffffffffffffffffffff1661282e82610f5a565b73ffffffffffffffffffffffffffffffffffffffff1614612884576040517f08c379a000000000000000000000000000000000000000000000000000000000815260040161287b906145f5565b60405180910390fd5b600073ffffffffffffffffffffffffffffffffffffffff168273ffffffffffffffffffffffffffffffffffffffff1614156128f4576040517f08c379a00000000000000000000000000000000000000000000000000000000081526004016128eb90614455565b60405180910390fd5b6128ff838383612f0d565b61290a600082612677565b6001600360008573ffffffffffffffffffffffffffffffffffffffff1673ffffffffffffffffffffffffffffffffffffffff168152602001908152602001600020600082825461295a9190614928565b925050819055506001600360008473ffffffffffffffffffffffffffffffffffffffff1673ffffffffffffffffffffffffffffffffffffffff16815260200190815260200160002060008282546129b19190614847565b92505081905550816002600083815260200190815260200160002060006101000a81548173ffffffffffffffffffffffffffffffffffffffff021916908373ffffffffffffffffffffffffffffffffffffffff160217905550808273ffffffffffffffffffffffffffffffffffffffff168473ffffffffffffffffffffffffffffffffffffffff167fddf252ad1be2c89b69c2b068fc378daa952ba7f163c4a11628f55a4df523b3ef60405160405180910390a4505050565b6000600660009054906101000a900473ffffffffffffffffffffffffffffffffffffffff16905081600660006101000a81548173ffffffffffffffffffffffffffffffffffffffff021916908373ffffffffffffffffffffffffffffffffffffffff1602179055508173ffffffffffffffffffffffffffffffffffffffff168173ffffffffffffffffffffffffffffffffffffffff167f8be0079c531659141344cd1fd0a4f28419497f9722a3daafe3b4186f6b6457e060405160405180910390a35050565b612b4a828260405180602001604052806000815250612f1d565b5050565b60008183612b5c9190614928565b905092915050565b60008183612b729190614847565b905092915050565b60008183612b8891906148ce565b905092915050565b612b9b84848461280e565b612ba784848484612f78565b612be6576040517f08c379a0000000000000000000000000000000000000000000000000000000008152600401612bdd90614395565b60405180910390fd5b50505050565b6060600b8054612bfb90614a12565b80601f0160208091040260200160405190810160405280929190818152602001828054612c2790614a12565b8015612c745780601f10612c4957610100808354040283529160200191612c74565b820191906000526020600020905b815481529060010190602001808311612c5757829003601f168201915b5050505050905090565b60606000821415612cc6576040518060400160405280600181526020017f30000000000000000000000000000000000000000000000000000000000000008152509050612e26565b600082905060005b60008214612cf8578080612ce190614a75565b915050600a82612cf1919061489d565b9150612cce565b60008167ffffffffffffffff811115612d3a577f4e487b7100000000000000000000000000000000000000000000000000000000600052604160045260246000fd5b6040519080825280601f01601f191660200182016040528015612d6c5781602001600182028036833780820191505090505b5090505b60008514612e1f57600182612d859190614928565b9150600a85612d949190614abe565b6030612da09190614847565b60f81b818381518110612ddc577f4e487b7100000000000000000000000000000000000000000000000000000000600052603260045260246000fd5b60200101907effffffffffffffffffffffffffffffffffffffffffffffffffffffffffffff1916908160001a905350600a85612e18919061489d565b9450612d70565b8093505050505b919050565b60007f80ac58cd000000000000000000000000000000000000000000000000000000007bffffffffffffffffffffffffffffffffffffffffffffffffffffffff1916827bffffffffffffffffffffffffffffffffffffffffffffffffffffffff19161480612ef657507f5b5e139f000000000000000000000000000000000000000000000000000000007bffffffffffffffffffffffffffffffffffffffffffffffffffffffff1916827bffffffffffffffffffffffffffffffffffffffffffffffffffffffff1916145b80612f065750612f058261310f565b5b9050919050565b612f18838383613179565b505050565b612f27838361328d565b612f346000848484612f78565b612f73576040517f08c379a0000000000000000000000000000000000000000000000000000000008152600401612f6a90614395565b60405180910390fd5b505050565b6000612f998473ffffffffffffffffffffffffffffffffffffffff1661345b565b15613102578373ffffffffffffffffffffffffffffffffffffffff1663150b7a02612fc261266f565b8786866040518563ffffffff1660e01b8152600401612fe494939291906142aa565b602060405180830381600087803b158015612ffe57600080fd5b505af192505050801561302f57506040513d601f19601f8201168201806040525081019061302c9190613c26565b60015b6130b2573d806000811461305f576040519150601f19603f3d011682016040523d82523d6000602084013e613064565b606091505b506000815114156130aa576040517f08c379a00000000000000000000000000000000000000000000000000000000081526004016130a190614395565b60405180910390fd5b805181602001fd5b63150b7a0260e01b7bffffffffffffffffffffffffffffffffffffffffffffffffffffffff1916817bffffffffffffffffffffffffffffffffffffffffffffffffffffffff191614915050613107565b600190505b949350505050565b60007f01ffc9a7000000000000000000000000000000000000000000000000000000007bffffffffffffffffffffffffffffffffffffffffffffffffffffffff1916827bffffffffffffffffffffffffffffffffffffffffffffffffffffffff1916149050919050565b61318483838361346e565b600073ffffffffffffffffffffffffffffffffffffffff168373ffffffffffffffffffffffffffffffffffffffff1614156131c7576131c281613473565b613206565b8173ffffffffffffffffffffffffffffffffffffffff168373ffffffffffffffffffffffffffffffffffffffff16146132055761320483826134bc565b5b5b600073ffffffffffffffffffffffffffffffffffffffff168273ffffffffffffffffffffffffffffffffffffffff1614156132495761324481613629565b613288565b8273ffffffffffffffffffffffffffffffffffffffff168273ffffffffffffffffffffffffffffffffffffffff161461328757613286828261376c565b5b5b505050565b600073ffffffffffffffffffffffffffffffffffffffff168273ffffffffffffffffffffffffffffffffffffffff1614156132fd576040517f08c379a00000000000000000000000000000000000000000000000000000000081526004016132f490614555565b60405180910390fd5b61330681612603565b15613346576040517f08c379a000000000000000000000000000000000000000000000000000000000815260040161333d906143d5565b60405180910390fd5b61335260008383612f0d565b6001600360008473ffffffffffffffffffffffffffffffffffffffff1673ffffffffffffffffffffffffffffffffffffffff16815260200190815260200160002060008282546133a29190614847565b92505081905550816002600083815260200190815260200160002060006101000a81548173ffffffffffffffffffffffffffffffffffffffff021916908373ffffffffffffffffffffffffffffffffffffffff160217905550808273ffffffffffffffffffffffffffffffffffffffff16600073ffffffffffffffffffffffffffffffffffffffff167fddf252ad1be2c89b69c2b068fc378daa952ba7f163c4a11628f55a4df523b3ef60405160405180910390a45050565b600080823b905060008111915050919050565b505050565b600980549050600a600083815260200190815260200160002081905550600981908060018154018082558091505060019003906000526020600020016000909190919091505550565b600060016134c98461109a565b6134d39190614928565b90506000600860008481526020019081526020016000205490508181146135b8576000600760008673ffffffffffffffffffffffffffffffffffffffff1673ffffffffffffffffffffffffffffffffffffffff168152602001908152602001600020600084815260200190815260200160002054905080600760008773ffffffffffffffffffffffffffffffffffffffff1673ffffffffffffffffffffffffffffffffffffffff168152602001908152602001600020600084815260200190815260200160002081905550816008600083815260200190815260200160002081905550505b6008600084815260200190815260200160002060009055600760008573ffffffffffffffffffffffffffffffffffffffff1673ffffffffffffffffffffffffffffffffffffffff16815260200190815260200160002060008381526020019081526020016000206000905550505050565b6000600160098054905061363d9190614928565b90506000600a6000848152602001908152602001600020549050600060098381548110613693577f4e487b7100000000000000000000000000000000000000000000000000000000600052603260045260246000fd5b9060005260206000200154905080600983815481106136db577f4e487b7100000000000000000000000000000000000000000000000000000000600052603260045260246000fd5b906000526020600020018190555081600a600083815260200190815260200160002081905550600a6000858152602001908152602001600020600090556009805480613750577f4e487b7100000000000000000000000000000000000000000000000000000000600052603160045260246000fd5b6001900381819060005260206000200160009055905550505050565b60006137778361109a565b905081600760008573ffffffffffffffffffffffffffffffffffffffff1673ffffffffffffffffffffffffffffffffffffffff168152602001908152602001600020600083815260200190815260200160002081905550806008600084815260200190815260200160002081905550505050565b8280546137f790614a12565b90600052602060002090601f0160209004810192826138195760008555613860565b82601f1061383257805160ff1916838001178555613860565b82800160010185558215613860579182015b8281111561385f578251825591602001919060010190613844565b5b50905061386d9190613871565b5090565b5b8082111561388a576000816000905550600101613872565b5090565b60006138a161389c8461475e565b614739565b9050828152602081018484840111156138b957600080fd5b6138c48482856149d0565b509392505050565b60006138df6138da8461478f565b614739565b9050828152602081018484840111156138f757600080fd5b6139028482856149d0565b509392505050565b60008135905061391981615339565b92915050565b60008083601f84011261393157600080fd5b8235905067ffffffffffffffff81111561394a57600080fd5b60208301915083602082028301111561396257600080fd5b9250929050565b60008135905061397881615350565b92915050565b60008135905061398d81615367565b92915050565b6000815190506139a281615367565b92915050565b600082601f8301126139b957600080fd5b81356139c984826020860161388e565b91505092915050565b600082601f8301126139e357600080fd5b81356139f38482602086016138cc565b91505092915050565b600081359050613a0b8161537e565b92915050565b600060208284031215613a2357600080fd5b6000613a318482850161390a565b91505092915050565b60008060408385031215613a4d57600080fd5b6000613a5b8582860161390a565b9250506020613a6c8582860161390a565b9150509250929050565b600080600060608486031215613a8b57600080fd5b6000613a998682870161390a565b9350506020613aaa8682870161390a565b9250506040613abb868287016139fc565b9150509250925092565b60008060008060808587031215613adb57600080fd5b6000613ae98782880161390a565b9450506020613afa8782880161390a565b9350506040613b0b878288016139fc565b925050606085013567ffffffffffffffff811115613b2857600080fd5b613b34878288016139a8565b91505092959194509250565b60008060408385031215613b5357600080fd5b6000613b618582860161390a565b9250506020613b7285828601613969565b9150509250929050565b60008060408385031215613b8f57600080fd5b6000613b9d8582860161390a565b9250506020613bae858286016139fc565b9150509250929050565b60008060208385031215613bcb57600080fd5b600083013567ffffffffffffffff811115613be557600080fd5b613bf18582860161391f565b92509250509250929050565b600060208284031215613c0f57600080fd5b6000613c1d8482850161397e565b91505092915050565b600060208284031215613c3857600080fd5b6000613c4684828501613993565b91505092915050565b600060208284031215613c6157600080fd5b600082013567ffffffffffffffff811115613c7b57600080fd5b613c87848285016139d2565b91505092915050565b600060208284031215613ca257600080fd5b6000613cb0848285016139fc565b91505092915050565b6000613cc5838361422d565b60208301905092915050565b613cda8161495c565b82525050565b6000613ceb826147d0565b613cf581856147fe565b9350613d00836147c0565b8060005b83811015613d31578151613d188882613cb9565b9750613d23836147f1565b925050600181019050613d04565b5085935050505092915050565b613d478161496e565b82525050565b6000613d58826147db565b613d62818561480f565b9350613d728185602086016149df565b613d7b81614bab565b840191505092915050565b6000613d91826147e6565b613d9b818561482b565b9350613dab8185602086016149df565b613db481614bab565b840191505092915050565b6000613dca826147e6565b613dd4818561483c565b9350613de48185602086016149df565b80840191505092915050565b6000613dfd602a8361482b565b9150613e0882614bbc565b604082019050919050565b6000613e20602b8361482b565b9150613e2b82614c0b565b604082019050919050565b6000613e4360328361482b565b9150613e4e82614c5a565b604082019050919050565b6000613e6660268361482b565b9150613e7182614ca9565b604082019050919050565b6000613e89601c8361482b565b9150613e9482614cf8565b602082019050919050565b6000613eac601f8361482b565b9150613eb782614d21565b602082019050919050565b6000613ecf60218361482b565b9150613eda82614d4a565b604082019050919050565b6000613ef260208361482b565b9150613efd82614d99565b602082019050919050565b6000613f1560248361482b565b9150613f2082614dc2565b604082019050919050565b6000613f3860198361482b565b9150613f4382614e11565b602082019050919050565b6000613f5b601f8361482b565b9150613f6682614e3a565b602082019050919050565b6000613f7e602c8361482b565b9150613f8982614e63565b604082019050919050565b6000613fa160388361482b565b9150613fac82614eb2565b604082019050919050565b6000613fc4602a8361482b565b9150613fcf82614f01565b604082019050919050565b6000613fe760298361482b565b9150613ff282614f50565b604082019050919050565b600061400a602a8361482b565b915061401582614f9f565b604082019050919050565b600061402d60208361482b565b915061403882614fee565b602082019050919050565b6000614050602c8361482b565b915061405b82615017565b604082019050919050565b600061407360058361483c565b915061407e82615066565b600582019050919050565b600061409660208361482b565b91506140a18261508f565b602082019050919050565b60006140b9601a8361482b565b91506140c4826150b8565b602082019050919050565b60006140dc60298361482b565b91506140e7826150e1565b604082019050919050565b60006140ff60298361482b565b915061410a82615130565b604082019050919050565b6000614122602f8361482b565b915061412d8261517f565b604082019050919050565b600061414560218361482b565b9150614150826151ce565b604082019050919050565b6000614168600083614820565b91506141738261521d565b600082019050919050565b600061418b60318361482b565b915061419682615220565b604082019050919050565b60006141ae602c8361482b565b91506141b98261526f565b604082019050919050565b60006141d160158361482b565b91506141dc826152be565b602082019050919050565b60006141f4601c8361482b565b91506141ff826152e7565b602082019050919050565b600061421760208361482b565b915061422282615310565b602082019050919050565b614236816149c6565b82525050565b614245816149c6565b82525050565b60006142578285613dbf565b91506142638284613dbf565b915061426e82614066565b91508190509392505050565b60006142858261415b565b9150819050919050565b60006020820190506142a46000830184613cd1565b92915050565b60006080820190506142bf6000830187613cd1565b6142cc6020830186613cd1565b6142d9604083018561423c565b81810360608301526142eb8184613d4d565b905095945050505050565b600060208201905081810360008301526143108184613ce0565b905092915050565b600060208201905061432d6000830184613d3e565b92915050565b6000602082019050818103600083015261434d8184613d86565b905092915050565b6000602082019050818103600083015261436e81613df0565b9050919050565b6000602082019050818103600083015261438e81613e13565b9050919050565b600060208201905081810360008301526143ae81613e36565b9050919050565b600060208201905081810360008301526143ce81613e59565b9050919050565b600060208201905081810360008301526143ee81613e7c565b9050919050565b6000602082019050818103600083015261440e81613e9f565b9050919050565b6000602082019050818103600083015261442e81613ec2565b9050919050565b6000602082019050818103600083015261444e81613ee5565b9050919050565b6000602082019050818103600083015261446e81613f08565b9050919050565b6000602082019050818103600083015261448e81613f2b565b9050919050565b600060208201905081810360008301526144ae81613f4e565b9050919050565b600060208201905081810360008301526144ce81613f71565b9050919050565b600060208201905081810360008301526144ee81613f94565b9050919050565b6000602082019050818103600083015261450e81613fb7565b9050919050565b6000602082019050818103600083015261452e81613fda565b9050919050565b6000602082019050818103600083015261454e81613ffd565b9050919050565b6000602082019050818103600083015261456e81614020565b9050919050565b6000602082019050818103600083015261458e81614043565b9050919050565b600060208201905081810360008301526145ae81614089565b9050919050565b600060208201905081810360008301526145ce816140ac565b9050919050565b600060208201905081810360008301526145ee816140cf565b9050919050565b6000602082019050818103600083015261460e816140f2565b9050919050565b6000602082019050818103600083015261462e81614115565b9050919050565b6000602082019050818103600083015261464e81614138565b9050919050565b6000602082019050818103600083015261466e8161417e565b9050919050565b6000602082019050818103600083015261468e816141a1565b9050919050565b600060208201905081810360008301526146ae816141c4565b9050919050565b600060208201905081810360008301526146ce816141e7565b9050919050565b600060208201905081810360008301526146ee8161420a565b9050919050565b600060208201905061470a600083018461423c565b92915050565b6000604082019050614725600083018561423c565b6147326020830184613cd1565b9392505050565b6000614743614754565b905061474f8282614a44565b919050565b6000604051905090565b600067ffffffffffffffff82111561477957614778614b7c565b5b61478282614bab565b9050602081019050919050565b600067ffffffffffffffff8211156147aa576147a9614b7c565b5b6147b382614bab565b9050602081019050919050565b6000819050602082019050919050565b600081519050919050565b600081519050919050565b600081519050919050565b6000602082019050919050565b600082825260208201905092915050565b600082825260208201905092915050565b600081905092915050565b600082825260208201905092915050565b600081905092915050565b6000614852826149c6565b915061485d836149c6565b9250827fffffffffffffffffffffffffffffffffffffffffffffffffffffffffffffffff0382111561489257614891614aef565b5b828201905092915050565b60006148a8826149c6565b91506148b3836149c6565b9250826148c3576148c2614b1e565b5b828204905092915050565b60006148d9826149c6565b91506148e4836149c6565b9250817fffffffffffffffffffffffffffffffffffffffffffffffffffffffffffffffff048311821515161561491d5761491c614aef565b5b828202905092915050565b6000614933826149c6565b915061493e836149c6565b92508282101561495157614950614aef565b5b828203905092915050565b6000614967826149a6565b9050919050565b60008115159050919050565b60007fffffffff0000000000000000000000000000000000000000000000000000000082169050919050565b600073ffffffffffffffffffffffffffffffffffffffff82169050919050565b6000819050919050565b82818337600083830152505050565b60005b838110156149fd5780820151818401526020810190506149e2565b83811115614a0c576000848401525b50505050565b60006002820490506001821680614a2a57607f821691505b60208210811415614a3e57614a3d614b4d565b5b50919050565b614a4d82614bab565b810181811067ffffffffffffffff82111715614a6c57614a6b614b7c565b5b80604052505050565b6000614a80826149c6565b91507fffffffffffffffffffffffffffffffffffffffffffffffffffffffffffffffff821415614ab357614ab2614aef565b5b600182019050919050565b6000614ac9826149c6565b9150614ad4836149c6565b925082614ae457614ae3614b1e565b5b828206905092915050565b7f4e487b7100000000000000000000000000000000000000000000000000000000600052601160045260246000fd5b7f4e487b7100000000000000000000000000000000000000000000000000000000600052601260045260246000fd5b7f4e487b7100000000000000000000000000000000000000000000000000000000600052602260045260246000fd5b7f4e487b7100000000000000000000000000000000000000000000000000000000600052604160045260246000fd5b6000601f19601f8301169050919050565b7f43616e206f6e6c79206d696e74206f6e65206f72206d6f726520746f6b656e7360008201527f20617420612074696d6500000000000000000000000000000000000000000000602082015250565b7f455243373231456e756d657261626c653a206f776e657220696e646578206f7560008201527f74206f6620626f756e6473000000000000000000000000000000000000000000602082015250565b7f4552433732313a207472616e7366657220746f206e6f6e20455243373231526560008201527f63656976657220696d706c656d656e7465720000000000000000000000000000602082015250565b7f4f776e61626c653a206e6577206f776e657220697320746865207a65726f206160008201527f6464726573730000000000000000000000000000000000000000000000000000602082015250565b7f4552433732313a20746f6b656e20616c7265616479206d696e74656400000000600082015250565b7f596f7520617265206e6f74206f6e207468652050726573616c65204c69737400600082015250565b7f53616c65206d7573742062652061637469766520746f206d696e7420546f6b6560008201527f6e00000000000000000000000000000000000000000000000000000000000000602082015250565b7f4e6f7420656e6f7567682072657365727665206c65667420666f72207465616d600082015250565b7f4552433732313a207472616e7366657220746f20746865207a65726f2061646460008201527f7265737300000000000000000000000000000000000000000000000000000000602082015250565b7f4552433732313a20617070726f766520746f2063616c6c657200000000000000600082015250565b7f45746865722076616c75652073656e74206973206e6f7420636f727265637400600082015250565b7f4552433732313a206f70657261746f7220717565727920666f72206e6f6e657860008201527f697374656e7420746f6b656e0000000000000000000000000000000000000000602082015250565b7f4552433732313a20617070726f76652063616c6c6572206973206e6f74206f7760008201527f6e6572206e6f7220617070726f76656420666f7220616c6c0000000000000000602082015250565b7f4552433732313a2062616c616e636520717565727920666f7220746865207a6560008201527f726f206164647265737300000000000000000000000000000000000000000000602082015250565b7f4552433732313a206f776e657220717565727920666f72206e6f6e657869737460008201527f656e7420746f6b656e0000000000000000000000000000000000000000000000602082015250565b7f507572636861736520776f756c6420657863656564206d617820737570706c7960008201527f206f6620746f6b656e7300000000000000000000000000000000000000000000602082015250565b7f4552433732313a206d696e7420746f20746865207a65726f2061646472657373600082015250565b7f4552433732313a20617070726f76656420717565727920666f72206e6f6e657860008201527f697374656e7420746f6b656e0000000000000000000000000000000000000000602082015250565b7f2e6a736f6e000000000000000000000000000000000000000000000000000000600082015250565b7f4f776e61626c653a2063616c6c6572206973206e6f7420746865206f776e6572600082015250565b7f43616e27742061646420746865206e756c6c2061646472657373000000000000600082015250565b7f507572636861736520776f756c6420657863656564206d617820737570706c7960008201527f206f6620746f6b656e0000000000000000000000000000000000000000000000602082015250565b7f4552433732313a207472616e73666572206f6620746f6b656e2074686174206960008201527f73206e6f74206f776e0000000000000000000000000000000000000000000000602082015250565b7f4552433732314d657461646174613a2055524920717565727920666f72206e6f60008201527f6e6578697374656e7420746f6b656e0000000000000000000000000000000000602082015250565b7f4552433732313a20617070726f76616c20746f2063757272656e74206f776e6560008201527f7200000000000000000000000000000000000000000000000000000000000000602082015250565b50565b7f4552433732313a207472616e736665722063616c6c6572206973206e6f74206f60008201527f776e6572206e6f7220617070726f766564000000000000000000000000000000602082015250565b7f455243373231456e756d657261626c653a20676c6f62616c20696e646578206f60008201527f7574206f6620626f756e64730000000000000000000000000000000000000000602082015250565b7f50726573616c65206973206e6f74206163746976650000000000000000000000600082015250565b7f50757263686173652065786365656473206d617820616c6c6f77656400000000600082015250565b7f43616e6e6f742070757263686173652074686973206d616e7920746f6b656e73600082015250565b6153428161495c565b811461534d57600080fd5b50565b6153598161496e565b811461536457600080fd5b50565b6153708161497a565b811461537b57600080fd5b50565b615387816149c6565b811461539257600080fd5b5056fe697066733a2f2f516d5947417033477a316d35556d466856345056525250594533484c31416d4377454b4650786e673439387666622f68696464656e2e6a736f6ea2646970667358221220817ab989d71ffc9d36078ce5238be4688616eebf9944543022893c0fefb7e32c64736f6c63430008040033",
  "linkReferences": {},
  "deployedLinkReferences": {}
}